:020000020000FC
:10000000E3C7DFC118951895189518950BC1C0C1A5
:1000100018951BC0B3C0C9C01895189518951895A8
:100020001895AA24AA94F1F7AA24AA94AA94AA94A7
:10003000AA94D9F70895DD24DA94F1F7DD24DA944F
:10004000DA94DA94DA94D9F708959FB6F0916100C2
:10005000E0916000519906C09CB1F0E2E0E08E7F33
:10006000826010C09CB180FD0DC081FF07C0903040
:1000700041F48D7F9FEF9093680004C09193F2321A
:1000800008F08160F0936100E09360009FBE1895D6
:100090009091800093709093700090918300909362
:1000A0007300909185009093750090918600965D05
:1000B000909376009091810090959093710090912B
:1000C00088009095909378009091820090959093FD
:1000D000720090918900909590937900909184009E
:1000E00090959093740090918A00909590937A00E7
:1000F0009091870090959093770090918B009095C8
:1001000090937B00089510918000137010937000FD
:100110001091830010937300109185001093750067
:1001200010918600165D1093760010918100109555
:100130001093710010918800109510937800109121
:100140008200109510937200109189001095109301
:1001500079001091840010951093740010918A001A
:10016000109510937A0010918700109510937700E6
:1001700010918B00109510937B0008959FB6F0911D
:100180006300E091620090917500E917909176000C
:10019000F90718F491919CB902C055988460F093C6
:1001A0006300E09362009FBE18959FB69091700027
:1001B00090FF0FC0909170009064909370009091A8
:1001C0007A009DBD909174009CBD92E09EBD9FBE43
:1001D000189582FF18959091700091FD01C010C094
:1001E0009091700090689093700090917B009DBDFD
:1001F000909177009CBD94E09EBD8B7F9FBE18952B
:10020000539846DF909170009061909370009091A8
:1002100078009DBD909171009CBD93E09EBD8B7F49
:100220009FBE18959FB690E09EBD98B7906898BF06
:100230009091700094FD05C095FD1AC096FD25C0F3
:1002400043C0539A909170009F7E9062909370008B
:10025000FAE2E0E0F0936300E093620090917900AD
:100260009DBD909172009CBD92E09EBD9FBE189571
:10027000909170009F7D9093700090FF559A8B7FB6
:10028000909173009CB99FBE1895F0916300E09126
:10029000620090917500E91790917600F90740F49B
:1002A00091919CB9F0936300E09362009FBE189512
:1002B000F0936300E09362008460909170009E7BF5
:1002C00090937000846072CF5398E2DE909170003A
:1002D000906190937000909178009DBD9091710015
:1002E0009CBD93E09EBD9FBE189500910A0101FD43
:1002F00007C0026088278093680081E0549A579A6B
:1003000000930A01089500910A0101FF06C00D7FC4
:100310005798549888278093680000930A0108959D
:1003200000910A0100FD12C0016010E61BB9EBDE6E
:1003300010917000106110937000109178001DBD35
:10034000109171001CBD13E01EBD569A00930A0166
:10035000089500910A0100FF06C00E7F10E01EBD47
:1003600056985598539800930A01089500910A01F0
:1003700002FD02C00460C09800930A010895009134
:100380000A0102FF02C00B7FC09A00930A01089580
:100390009FB6909169009A9521F0909369009FBE55
:1003A000189560FF08C0959B01C002C0959A01C0D6
:1003B00095986E7F01C0959A92E0909369009FBED8
:1003C00018959FB66160B0900610B4FC07C0B6FCEB
:1003D0008AC0B2FC58C0B1FC1AC0FCC3B0900E1069
:1003E000B4FC03C0B5FC0CC0F5C35C7F98E09093EF
:1003F000231098E09093271091E090932710EAC380
:1004000098E090932F1091E090932F10E3C3B09059
:100410000810B4FC28C0B7FC2EC0B6FC01C0DAC37B
:1004200090E09093051055279093080104DE03DEB9
:1004300090E89093041090E09093201090932810EF
:1004400090932C1098E09093231098E090932710AD
:1004500090E59093091092E09093051091E09093AD
:100460002710677FB7C390EC9093091093E09093A7
:1004700005106860AFC392E09093051090E59093EB
:100480000910677FA7C3B0900A10B1FC1EC0B0FC72
:1004900001C0A0C39091221096FF9CC398E0909356
:1004A000231050FD06C051FD06C091E09093271027
:1004B00091C386D100C053FF03C095E0577F02C0AF
:1004C00091E058609093231085C390912A1096FF75
:1004D00002C05F7D7FC356FD02C097E101C093E17A
:1004E00090932B1077C3B0900C10B1FCB9C2B0FC44
:1004F00001C070C39091261096FF4DC2507E90E0CF
:1005000090932010B0902510B0920001B09025106B
:10051000B0920101B0902510B0920201B090251068
:10052000B0920301B0902510B0920401B090251054
:10053000B0920501B0902510B0920601B090251040
:10054000B092070198E09093231090932710909118
:1005500000019076903019F0903261F115C29091BF
:1005600000019F71903029F0913081F09230C9F0F4
:100570000BC290910101903021F1953019F1963024
:1005800011F1983009F1993001F1FEC1909101010A
:100590009030E1F09630B9F09A30C9F09B30C1F05C
:1005A000F3C1909101019030A1F0913099F0933016
:1005B00091F0EAC190910101913071F0993069F0A8
:1005C000E3C10CC014C01CC033C037C058C05DC0EC
:1005D00065C0ABC085C068C0DAC0DDC091E062FF15
:1005E00090E090932110992790932110C2C190E43C
:1005F0009093201090910201906890930410B2C1E2
:10060000516064D1BB243B144B0409F4BDC1B090CC
:100610000601909107013B14490608F402C03B2CE7
:10062000492E330C441CF6D0310C421CC9D0A1C158
:1006300090910801909321109CC1909102019030FB
:1006400019F0913061F0A0C19093080198E0909367
:100650002F1099279093281090932C1083C190937A
:10066000080191E19093281092E190932C1098E06A
:1006700090932F1095E090932F105F7973C1992775
:10068000909321109093211074C1909104019030A7
:1006900009F07AC19927909321106BC190910401C0
:1006A000903009F071C15EC190910201903079F4EF
:1006B00090910301903059F490910801913039F4F0
:1006C000909104019F70913019F0923029F05CC133
:1006D00091E99093281046C192E990932C1042C161
:1006E000909102019030A1F490910301903081F437
:1006F000909104019F70903061F0909108019130C9
:1007000039F4909104019F70913039F0923049F0A2
:100710003BC190E09093201025C191E19093281067
:1007200021C192E190932C101DC1909104019F7002
:10073000903061F090910801913039F4909104016A
:100740009F70913071F09230B9F01EC190912010DD
:10075000991F991F917090932110992790932110C0
:1007600008C190912810991F991F917090932110A2
:10077000992790932110FDC090912C10991F991FDB
:10078000917090932110992790932110F2C098E0D6
:1007900090932310EEC090910301923081F49091D8
:1007A0000201903061F490910601923240F49091F0
:1007B0000701903021F4546077248824DEC0E4C01F
:1007C000512C622C90E1590E9927691EE12DF22DD2
:1007D000E515F605E0F4E315F405B8F4C895FC3129
:1007E00019F4E43309F409C0FC3159F4E23349F453
:1007F00062FF07C090EC092E04C062FF02C095E0C2
:10080000092E009221103296E3CF5E7F08951E2EAE
:100810002F2E089590910301913009F1923021F12A
:10082000933059F09430C9F1953091F0913219F02C
:10083000923211F014C040C044C090910201903037
:10084000C1F09130D9F09230F1F0933009F12AC023
:1008500090910201903031F1913049F123C090E044
:10086000192E9CE1292E089594E2192E9CE1292E3F
:1008700008959EEB192E9CE1292E089596EC192ED1
:100880009CE1292E08959EE1192E9DE1292E0895BF
:100890009EE5192E9DE1292E089596E3192E9CE1DF
:1008A000292E08959AE5192E9CE1292E089598E69F
:1008B000192E9CE1292E089598E4192E9CE1292EE9
:1008C000089596E7192E9CE1292E08959091030131
:1008D0004424913049F1923069F0933081F09430A2
:1008E000C9F09530B1F19132B9F19232C1F090E096
:1008F000392E0895909102019030C9F0F8CF90916F
:1009000002019030B9F09130C1F09230C9F09330CB
:10091000D1F0EDCF909102019030C1F0E8CF9091ED
:1009200002019030E1F0E3CF92E1392E089599E28F
:10093000392E089594E0392E08959CE2392E0895B9
:1009400090E2392E089592E2392E089599E0392ED9
:10095000089597E0392E089599E0392E089594E28C
:10096000392E089598E09093231095E090932310EA
:1009700031C195E0909323102DC198E090932710FA
:1009800091E09093271026C190E89093201095E075
:10099000909323101FC152FD05C05C7F98E0909397
:1009A0002310EBCFEE27FF27E715F805A9F1E72D78
:1009B000F82D909106019A95B0902510B192E91703
:1009C00020F5B0902510B192E917F8F4B0902510F9
:1009D000B192E917D0F4B0902510B192E917A8F4BC
:1009E000B0902510B192E91780F4B0902510B19223
:1009F000E91758F4B0902510B192E91730F4B0908F
:100A00002510B192E91708F404C05B7FABCF409189
:100A100025107E2E8F2EB1CFE0912510E031B9F355
:100A2000E131B8F7FF27EE0FEE0FEE0FEE0FEE0FEE
:100A3000FF1FFE5DB0902510B192B0902510B192CD
:100A4000B0902510B192B0902510B192B0902510C1
:100A5000B192B0902510B192B0902510B192D9CF3B
:100A600090912E1097FDAFC0E0912D10E03138F03D
:100A7000E03131F0E13139F0E231B1F1A4C03BC0F5
:100A800040912D10A0C090912D10909380009091D6
:100A90002D109093810090912D109093880090914B
:100AA0002D109093820090912D1090938900909139
:100AB0002D109093840090912D1090938A00909126
:100AC0002D109093870090912D1090938B00909112
:100AD0002D109093850090912D1090938600909109
:100AE0002D10909383006FC090912D10913009F0DC
:100AF0006AC087D168C0FF27EE0FEE0FEE0FEE0F32
:100B0000EE0FFF1FFE5DB0902D10B192B0902D1032
:100B1000B192B0902D10B192B0902D10B192B090D2
:100B20002D10B192B0902D10B192B0902D10B192C5
:100B3000B0902D10B192B0902D10B192B0902D10B8
:100B4000B192B0902D10B192B0902D10B192B090A2
:100B50002D10B192B0902D10B192B0902D10B19295
:100B6000B0902D10B192B0902D10B192B0902D1088
:100B7000B192B0902D10B192B0902D10B192B09072
:100B80002D10B192B0902D10B192B0902D10B19265
:100B9000B0902D10B192B0902D10B192B0902D1058
:100BA000B192B0902D10B192B0902D10B192B09042
:100BB0002D10B192B0902D10B192B0902D10B19235
:100BC000B0902D10B19298E090932F1095E09093F3
:100BD0002F1000C09FBE189555272227209308018B
:100BE00023E02093011021E02093001020910010B9
:100BF00020FDFCCF24EC209300102BE012DA2A9584
:100C0000E9F720E320930F1023E020930B1023E05B
:100C100020930D1020E52093091026E5209307105E
:100C2000089520E0209305105527222720930801DE
:100C3000677F20E82093041020E020932010209369
:100C4000281020932C1022E02093051028E02093F8
:100C5000231028E02093271021E0209327102CEC6C
:100C60002093001026ED20930710089526E5209389
:100C7000071024EC2093001020E020930510677FDC
:100C8000089500910A0103FD06C00860959A12E8D4
:100C900019BF15E013BF00930A01089500910A01DE
:100CA00003FF07C0077F10E013BF10E819BF000063
:100CB000959800930A010895839B02C0626001C069
:100CC0006D7F849B02C0646001C06B7F089541DB2F
:100CD0001ADB55DBE3DF05B7006305BF8895089590
:100CE000C5DF9FD99ED99DD99CD99BD99AD999D92D
:100CF00098D997D996D995D994D993D992D991D988
:100D000063C1E199FECF99279FBB909190009EBB54
:100D1000E09A9DB3909391000895E199FECF9927B1
:100D20009FBB909190009EBBE09AEDB39091910093
:100D3000E91729F09DBBF894E29AE19A7894089516
:100D400000E000939000DDDF0091910000938000AF
:100D500001E000939000D5DF0091910000938100A5
:100D600002E000939000CDDF009191000093880095
:100D700003E000939000C5DF009191000093820092
:100D800004E000939000BDDF009191000093890082
:100D900005E000939000B5DF00919100009384007E
:100DA00006E000939000ADDF0091910000938A006F
:100DB00007E000939000A5DF009191000093870069
:100DC00008E0009390009DDF0091910000938B005C
:100DD00009E00093900095DF009191000093850059
:100DE0000AE0009390008DDF00919100009386004F
:100DF0000BE00093900085DF009191000093830049
:100E0000089590E0909390009091800090939100CD
:100E100084DF91E0909390009091810090939100F5
:100E20007CDF92E0909390009091880090939100E5
:100E300074DF93E0909390009091820090939100E2
:100E40006CDF94E0909390009091890090939100D2
:100E500064DF95E0909390009091840090939100CE
:100E60005CDF96E09093900090918A0090939100BF
:100E700054DF97E0909390009091870090939100B9
:100E80004CDF98E09093900090918B0090939100AC
:100E900044DF99E0909390009091850090939100A9
:100EA0003CDF9AE09093900090918600909391009F
:100EB00034DF9BE090939000909183009093910099
:100EC0002CDF0895B0E2AA27D0E4CC2711271D9388
:100ED000AC17BD07E0F30895BB27A72FAA0FAA0FF1
:100EE000AA0FAA0FAA0FBB1FB05ECA2FDB2FD65FB7
:100EF000EE240D910993E394E5FEFBCF0895BB2703
:100F0000A72FAA0FAA0FAA0FAA0FAA0FBB1FBE5D79
:100F1000CA2FDB2FD85FEE240D910993E394E5FEF1
:100F2000FBCF0895BB27A72FAA0FAA0FAA0FAA0FBE
:100F3000AA0FBB1FB05ECA2FDB2FDE5FEE240C9121
:100F40001991011708F4012FB65F0D93BA50E3947D
:100F5000E5FEF5CF0895BB27A72FAA0FAA0FAA0F6A
:100F6000AA0FAA0FBB1FB05ECA2FDB2FDA5FEE24D9
:100F70000D911991011721F4E394E5FEF9CF08953D
:100F8000BB27A72FAA0FAA0FAA0FAA0FAA0FBB1F32
:100F9000B05ECA2FDB2FDA5F10E810932B1070932E
:100FA0002910EE240D91009329100993E394E5FE96
:100FB000F9CF506256FF03C017E05F7B02C013E019
:100FC000506410932B10DBCF0FE50DBF02E00EBF76
:100FD00000E00ABB0BBB01E007BB01E008BB04BBA0
:100FE00005BB02E201BB05E002BB00E809BF00E06F
:100FF00002BF12E019B9529A16E810BD509A0CECD3
:1010000005BF0CE106BF00E40BBF442740930A0173
:101010006627FF24772756DF93DE78944DDE062F70
:10102000067000930901D8DD61FD02C041E001C0F6
:10103000F8DD8FD968D9A3D962FD08C000910801F5
:10104000003021F486D95FD99AD932C0042F0370B9
:10105000013029F0023029F0033029F005C03CDFCF
:1010600003C04DDF01C05EDF42FF08C010910801E0
:10107000113021F463FD02C055FF6DDF739574FDDF
:101080007727042F0770003041F0023051F0043010
:1010900061F046D92AD96AD90BC05BD934D96FD946
:1010A00007C03ED930D962D903C053D91ED95ED901
:1010B00061FDE7DD61FFF2DD62FD02C063FD07DE79
:1010C000FBDD162F167000910901101709F008CEEC
:0210D000B3CF9C
:101C000012000100100001000000000000000800A8
:101C1000B40004001F000F001000010001000200CA
:101C2000030001000900020029000000010001007A
:101C300000008000640009000400000000000200B1
:101C40000300000000000000090021001000010056
:101C500000000100220024000000070005008100B0
:101C6000030021000000010007000500020003003E
:101C70002100000001000600A000FF000900A500EF
:101C8000A10001000900A6000900A700150000003E
:101C90002500FF0075000800950021008200220049
:101CA00001000900A900150000002500FF007500D3
:101CB000080095002100920022000100C0000400ED
:101CC0000300090004002C00030044000000690028
:101CD000000067000000690000007400000061005F
:101CE00000006C00000020000000450000006E00B5
:101CF00000006C0000006900000067000000680040
:101D0000000074000000650000006E0000006D001F
:101D10000000650000006E0000007400000020005C
:101D2000030053000000750000006E0000006C000E
:101D300000006900000067000000680000007400F7
:101D40000000200000004B000000690000006C0053
:101D500000006C000000650000007200000022001E
:101D600003003000000030000000300000003000B0
:101D700000003000000030000000300000003000A3
:101D80000000300000003000000030000000300093
:101D90000000300000003800000031000000310079
:021DA000000041
:00000001FF
